:040000002FEF3EF0B0
:107C4A00000000000000803F0000004000004040AB
:107C5A00000080404A0EF66E7C0EF76E000EF86E3B
:107C6A0000EE2CF010EE14F00900F5CFEEFFE5500F
:107C7A00E150FAE1000142EF3EF0000E956E000E6F
:107C8A00836E000E836E20EE2CF010EE12F0130EAF
:107C9A00DBCFE3FFE806FCE2000E2B6E000E2A6E35
:107CAA0012C026F013C027F014C028F015C029F01E
:107CBA002A4A2B2A26C00DF027C00EF028C00FF042
:107CCA0029C010F0EFEC3EF051EF3EF000EF00F06B
:107CDA00000E0114096E000E02140A6E800E0314BF
:107CEA000B6E7F0E04140C6E09500A100B100C1048
:107CFA00D8A482EF3EF084EF3EF08CEF3EF0000E07
:107D0A00016E000E026E000E036E000E046E000E6F
:107D1A000514096E000E06140A6E800E07140B6E07
:107D2A007F0E08140C6E09500A100B100C10D8A400
:107D3A00A1EF3EF0A3EF3EF0ABEF3EF0000E056E72
:107D4A00000E066E000E076E000E086E04AEB0EF4F
:107D5A003EF0B2EF3EF0BBEF3EF0016C021ED8B02F
:107D6A00022A031ED8B0032A800E045608AEC0EFBA
:107D7A003EF0C2EF3EF0CBEF3EF0056C061ED8B0E7
:107D8A00062A071ED8B0072A800E0856000E011AC6
:107D9A00000E021A000E031A800E041A000E051AAB
:107DAA00000E061A000E071A800E081A0550015C0A
:107DBA00065002580750035808500458D8B0E8EF44
:107DCA003EF0EAEF3EF0EDEF3EF0D890EEEF3EF0F7
:107DDA00D880120010BEF4EF3EF0F6EF3EF017EF37
:107DEA003FF00DC001F00EC002F00FC003F010C04A
:107DFA0004F0000E056E000E066E800E076E3F0E32
:107E0A00086E6DEC3EF0D8B00DEF3FF00FEF3FF08B
:107E1A0017EF3FF08380820E116EDE0EE82EFED73A
:107E2A00112EFCD70DC001F00EC002F00FC003F0F6
:107E3A0010C004F0000E056E000E066E800E076E6E
:107E4A003F0E086E6DEC3EF0D8A02EEF3FF030EFFB
:107E5A003FF051EF3FF00DC001F00EC002F00FC02D
:107E6A0003F010C004F0000E056E000E066E000E40
:107E7A00076E400E086E6DEC3EF0D8B047EF3FF04B
:107E8A0049EF3FF051EF3FF08382820E116EDE0E12
:107E9A00E82EFED7112EFCD70DC001F00EC002F05D
:107EAA000FC003F010C004F0000E056E000E066E3F
:107EBA00000E076E400E086E6DEC3EF0D8A068EF1B
:107ECA003FF06AEF3FF08BEF3FF00DC001F00EC0BC
:107EDA0002F00FC003F010C004F0000E056E000E91
:107EEA00066E400E076E400E086E6DEC3EF0D8B07E
:107EFA0081EF3FF083EF3FF08BEF3FF08384820EF8
:107F0A00116EDE0EE82EFED7112EFCD70DC001F041
:107F1A000EC002F00FC003F010C004F0000E056E90
:107F2A00000E066E400E076E400E086E6DEC3EF0B7
:107F3A00D8A0A2EF3FF0A4EF3FF0C5EF3FF00DC08D
:107F4A0001F00EC002F00FC003F010C004F0000EE2
:107F5A00056E000E066E800E076E400E086E6DEC02
:107F6A003EF0D8B0BBEF3FF0BDEF3FF0C5EF3FF0BA
:107F7A008386820E116EDE0EE82EFED7112EFCD7F6
:107F8A000DC001F00EC002F00FC003F010C004F0E3
:107F9A00000E056E000E066E800E076E400E086E0D
:107FAA006DEC3EF0D8A0DCEF3FF0DEEF3FF0FFEFE4
:107FBA003FF0000E016E000E026EA00E036E400E20
:107FCA00046E0DC005F00EC006F00FC007F010C019
:107FDA0008F06DEC3EF0D8A0F5EF3FF0F7EF3FF078
:107FEA00FFEF3FF08388820E116EDE0EE82EFED779
:067FFA00112EFCD712005D
:020000040020DA
:08000000FFFFFFFFFFFFFFFF00
:020000040030CA
:0E000000000C1F1EFF8385FF0FC00FE00F4096
:00000001FF
