:0400000098EF1BF06A
:1008000000566F6C746167656D0025332E3266008B
:10081000494E46004E414E00696E66006E616E00A4
:100820006C660000000E00017B6F000E7A6F30C016
:100830008CF031C08DF032C08EF033C08FF08FBF9E
:1008400026EF04F024EF04F03CEF04F0000E7B6F81
:10085000010E7A6F8CC001F08DC002F08EC003F0E3
:100860008FC004F047EC1CF001C08CF002C08DF08A
:1008700003C08EF004C08FF0000E0001936F000ED5
:10088000926F5AC07EF05BC07FF07A517B11D8A482
:100890004CEF04F04EEF04F055EF04F05EA453EF7C
:1008A00004F055EF04F06FEF04F07A517B11D8A4F7
:1008B0005CEF04F05EEF04F064EF04F0000E616F93
:1008C0002B0E606F68EF04F0000E616F2D0E606FED
:1008D00060C000F1924B932B7E07D8A07F078CC09D
:1008E00001F08DC002F08EC003F08FC004F0BAECAE
:1008F00017F001040210D8A480EF04F082EF04F096
:10090000D9EF04F0BF0E356EFF0E366E3450376EE1
:10091000386A355037263650382238500AE11A0ED8
:10092000375CD8A096EF04F099EF04F0010E9AEF2F
:1009300004F0000E0001626F636B62516311D8B462
:10094000A4EF04F0A6EF04F0B4EF04F0000E92253B
:10095000016E010E9321026E100E036E080E046EDE
:1009600018EC1BF0C0EF04F0000E9225016E010E92
:100970009321026E180E036E080E046E18EC1BF025
:100980000001FD0E7E27FF0E7F232EC011F02FC029
:1009900012F0000E136E010E146E7EC015F07FC0B3
:1009A00016F06BEC19F011C02EF012C02FF03EEFD4
:1009B0000AF08CC001F08DC002F08EC003F08FC031
:1009C00004F0BAEC17F001500210D8A4EAEF04F0DA
:1009D000ECEF04F02CEF05F0BF0E356EFF0E366E17
:1009E0003450376E386A35503726365038223850F2
:1009F0000AE11A0E375CD8A000EF05F003EF05F00E
:100A0000010E04EF05F0000E0001646F656B645188
:100A10006511D8B40EEF05F010EF05F01EEF05F0EC
:100A2000000E9225016E010E9321026E140E036ECC
:100A3000080E046E18EC1BF0C0EF04F0000E9225B7
:100A4000016E010E9321026E1C0E036E080E046EE1
:100A500018EC1BF0C0EF04F0000E0001946F000EC4
:100A6000956F800E966F3F0E976F000E916F000E80
:100A7000906F8CC001F08DC002F08EC003F08FC06B
:100A800004F0000E056E000E066E000E076E000EDE
:100A9000086E24EC1AF0D8B050EF05F052EF05F0D4
:100AA000D5EF05F071EF05F094C001F095C002F0AC
:100AB00096C003F097C004F0000E056E000E066E9F
:100AC000200E076E410E086E4CEC0FF001C094F042
:100AD00002C095F003C096F004C097F00001904B5F
:100AE000912B8CC01AF08DC01BF08EC01CF08FC0F3
:100AF0001DF0000E056E000E066E200E076E410EF4
:100B0000086E94C001F095C002F096C003F097C043
:100B100004F04CEC0FF001C01EF002C01FF003C047
:100B200020F004C021F038EC17F0D8B09AEF05F0AF
:100B30009CEF05F054EF05F0BCEF05F094C001F018
:100B400095C002F096C003F097C004F0000E056E49
:100B5000000E066E200E076E410E086E61EC11F05D
:100B600001C094F002C095F003C096F004C097F065
:100B700000019007D8A091078CC01AF08DC01BF01F
:100B80008EC01CF08FC01DF094C01EF095C01FF0E9
:100B900096C020F097C021F038EC17F0D8A0D3EF22
:100BA00005F0D5EF05F09EEF05F034C007F0086AB8
:100BB000E8EC1AF007500001816F81C080F0670EE9
:100BC0008119D8A4E6EF05F0E8EF05F00EEF06F086
:100BD0005C505D10D8A4EFEF05F0F1EF05F0F5EFF4
:100BE00005F0000E5D6E010E5C6E5DBE02EF06F05C
:100BF0005D5006E15C04D8B000EF06F002EF06F0AD
:100C000008EF06F0000E7D6F060E7C6F17EF06F002
:100C10005CC07CF05DC07DF017EF06F05DBE13EFA9
:100C200006F015EF06F002EF06F008EF06F0670E8B
:100C30008119D8A41EEF06F020EF06F04FEF06F062
:100C400091AF2EEF06F0FC0E905DFF0E9159D8A0EB
:100C50002CEF06F02EEF06F04DEF06F0FF0E356E8E
:100C6000FF0E366E7CC037F07DC038F03550372629
:100C7000365038229051375C3850800A396E915185
:100C8000800A3958D8A047EF06F049EF06F04DEF3B
:100C900006F0660E806F4FEF06F0650E806F7CC029
:100CA00072F07DC073F0670E8119D8A45AEF06F078
:100CB0005CEF06F06CEF06F0660E8019D8A463EFC7
:100CC00006F065EF06F06EEF06F091BF6CEF06F0F0
:100CD0006AEF06F06EEF06F0724B732B660E80190A
:100CE000D8A475EF06F077EF06F097EF06F091BF06
:100CF0007EEF06F07CEF06F08AEF06F0000E946FB0
:100D0000000E956F800E966F3F0E976F000E916FDD
:100D1000000E906F670E8119D8B491EF06F093EF33
:100D200006F097EF06F09051722791517323000E51
:100D30008B6F000E8A6F8CC082F08DC083F08EC0E6
:100D400084F08FC085F094C074F095C075F096C0A3
:100D500076F097C077F028EF07F082C001F083C0EB
:100D600002F084C003F085C004F094C005F095C083
:100D700006F096C007F097C008F061EC11F001C0D2
:100D80001AF002C01BF003C01CF004C01DF05FECA1
:100D900014F01AC086F01BC087F01CC088F01DC07C
:100DA00089F086C001F087C002F088C003F089C0D6
:100DB00004F0B5EC16F001C078F002C079F082C002
:100DC0001AF083C01BF084C01CF085C01DF094C0D5
:100DD00005F095C006F096C007F097C008F086C0F1
:100DE00001F087C002F088C003F089C004F04CEC29
:100DF0000FF001C01EF002C01FF003C020F004C0BD
:100E000021F0E6EC1BF01AC082F01BC083F01CC07E
:100E100084F01DC085F094C001F095C002F096C02A
:100E200003F097C004F0000E056E000E066E200E53
:100E3000076E410E086E61EC11F001C094F002C023
:100E400095F003C096F004C097F000018A4B8B2BFD
:100E500072518A5D8B51800A356E7351800A355804
:100E6000D8A035EF07F037EF07F0ADEF06F094C0EC
:100E700001F095C002F096C003F097C004F0000E98
:100E8000056E000E066EA00E076E400E086E4CEC4E
:100E90000FF001C086F002C087F003C088F004C0E4
:100EA00089F082C01AF083C01BF084C01CF085C09A
:100EB0001DF086C01EF087C01FF088C020F089C0DA
:100EC00021F038EC17F0D8B068EF07F06AEF07F0C0
:100ED00075EF07F0000E0001866F000E876F000EA1
:100EE000886F000E896F9EEF07F082C001F083C00B
:100EF00002F084C003F085C004F086C005F087C00E
:100F000006F088C007F089C008F024EC1AF0D8A0D9
:100F10008CEF07F08EEF07F09EEF07F0000178B13D
:100F200094EF07F096EF07F09EEF07F0000E866F44
:100F3000000E876F000E886F000E896F8CC001F065
:100F40008DC002F08EC003F08FC004F086C005F0A3
:100F500087C006F088C007F089C008F0ECEC0CF000
:100F600001C082F002C083F003C084F004C085F0A9
:100F700082C01AF083C01BF084C01CF085C01DF035
:100F8000000E056E000E066E200E076E410E086EF6
:100F900074C001F075C002F076C003F077C004F0B1
:100FA0004CEC0FF001C01EF002C01FF003C020F097
:100FB00004C021F038EC17F0D8A0E1EF07F0E3EF20
:100FC00007F00CEF08F00001904B912B74C001F07A
:100FD00075C002F076C003F077C004F0000E056E15
:100FE000000E066E200E076E410E086E4CEC0FF0E0
:100FF00001C074F002C075F003C076F004C077F051
:10100000660E00018019D8A408EF08F00AEF08F076
:101010000CEF08F0724B732B74C094F075C095F010
:1010200076C096F077C097F0650E00018019D8B4AD
:101030001CEF08F01EEF08F024EF08F090C070F0ED
:1010400091C071F028EF08F0000E716F000E706F04
:10105000000E6F6F000E6E6F000E6D6F000E6C6FE6
:10106000000E8B6F000E8A6F24EF09F082C001F032
:1010700083C002F084C003F085C004F094C005F082
:1010800095C006F096C007F097C008F061EC11F02B
:1010900001C01AF002C01BF003C01CF004C01DF018
:1010A0005FEC14F01AC086F01BC087F01CC088F0FB
:1010B0001DC089F086C001F087C002F088C003F02F
:1010C00089C004F0B5EC16F001C078F002C079F0E8
:1010D0005EB86DEF08F06FEF08F08DEF08F00001DB
:1010E00078517911D8A477EF08F079EF08F08DEFF7
:1010F00008F0670E8119D8A480EF08F082EF08F09D
:101100008DEF08F071BF89EF08F087EF08F08DEFE1
:1011100008F06C4B6D2BD8EF08F000016E516F1189
:10112000D8A495EF08F097EF08F0C1EF08F071BF71
:101130009EEF08F09CEF08F0C1EF08F0000E92253A
:10114000D96E010E9321DA6E2E0EDF6E924B932B29
:101150007E07D8A07F07000E6F6F010E6E6FC1EF84
:1011600008F0000E9225D96E010E9321DA6E300E32
:10117000DF6E924B932B7E07D8A07F076C07D8A019
:101180006D076C516D11D8A4C8EF08F0CAEF08F0D4
:10119000B1EF08F0000E9225D96E010E9321DA6EA0
:1011A0007851300FDF6E924B932B7E07D8A07F07CC
:1011B00082C01AF083C01BF084C01CF085C01DF0F3
:1011C00094C005F095C006F096C007F097C008F0EF
:1011D00086C001F087C002F088C003F089C004F027
:1011E0004CEC0FF001C01EF002C01FF003C020F055
:1011F00004C021F0E6EC1BF01AC082F01BC083F0A3
:101200001CC084F01DC085F094C001F095C002F0B0
:1012100096C003F097C004F0000E056E000E066E37
:10122000200E076E410E086E61EC11F001C094F0C3
:1012300002C095F003C096F004C097F0000170075B
:10124000D8A071078A4B8B2B72518A5D8B51800A13
:10125000356E7351800A3558D8B031EF09F033EF4D
:1012600009F041EF09F093BF3FEF09F0935109E115
:101270004B0E925DD8A03FEF09F041EF09F036EF39
:1012800008F06E516F11D8A448EF09F04AEF09F049
:101290005BEF09F05EA84FEF09F051EF09F05BEF4B
:1012A00009F0000E9225D96E010E9321DA6E2E0EF2
:1012B000DF6E924B932B000E9225D96E010E932177
:1012C000DA6E000EDF6E650E8019D8A46AEF09F0A1
:1012D0006CEF09F0C5EF04F0000E8B6F4F0E8A6FB4
:1012E000000E8A25D96E010E8B21DA6E000EDF6E9C
:1012F000000E7B6F000E7A6F91BF83EF09F081EFD4
:1013000009F08BEF09F0000E7B6F010E7A6F906D84
:10131000911FD8B0912B000E7D6F020E7C6FBCEF39
:1013200009F08A07D8A08B07000E8A25D96E010E16
:101330008B21DA6E90C001F091C002F0000E046EB5
:101340000A0E036ECCEC19F00150300FDF6E90C026
:1013500001F091C002F0000E046E0A0E036E09EC5B
:1013600019F001C090F002C091F000017C07D8A0F4
:101370007D077E07D8A07F0790519111D8A4C3EFB5
:1013800009F0C5EF09F091EF09F07DBFD2EF09F048
:101390007D5106E17C05D8B0D0EF09F0D2EF09F01D
:1013A00091EF09F08A07D8A08B077A517B11D8A456
:1013B000DCEF09F0DEEF09F0E4EF09F0000E676FF3
:1013C0002B0E666FE8EF09F0000E676F2D0E666F4B
:1013D000000E8A25D96E010E8B21DA6E66C0DFFF02
:1013E0007E07D8A07F078A07D8A08B07BF0E356E6F
:1013F000FF0E366E3450376E386A35503726365009
:10140000382238500AE11A0E375CD8A00AEF0AF0E9
:101410000DEF0AF0010E0EEF0AF0000E6A6F6B6B13
:101420006A516B11D8A417EF0AF019EF0AF01FEFF9
:101430000AF0000E696F650E686F23EF0AF0000E68
:10144000696F450E686F000E8A25D96E010E8B21DB
:10145000DA6E68C0DFFF7E07D8A07F07000E9225F6
:10146000016E010E9321026E000E8A25036E010E9D
:101470008B21046E18EC1BF0C5EF04F012003CC089
:10148000D9FF3DC0DAFFDECFF6FFDDCFF7FF080062
:10149000F550250AD8A44FEF0AF051EF0AF0D0EF2B
:1014A0000CF03CC0D9FF3DC0DAFFDE2A000EDD2281
:1014B000000E5B6E000E5A6E5AC05EF05BC05FF0AD
:1014C0005C685D683CC0D9FF3DC0DAFFDECFF6FF47
:1014D000DDCFF7FF0800F5502A0AD8A472EF0AF012
:1014E00074EF0AF09DEF0AF03CC0D9FF3DC0DAFF6F
:1014F000DE2A000EDD223EC0D9FF3FC0DAFFDFCF7B
:1015000040F0020EDE26DFCF41F0000EDD2240C0AB
:10151000D9FF41C0DAFFDECF5AF0DDCF5BF05BBE12
:1015200096EF0AF094EF0AF0E0EF0AF05E805A6C52
:101530005B1ED8B05B2AE0EF0AF03CC0D9FF3DC08B
:10154000DAFFDECF08F0DDCF09F068EC15F008C057
:101550005AF009C05BF0B4EF0AF03CC0D9FF3DC0BF
:10156000DAFFDE2A000EDD22D00E406EFF0E416E45
:101570003CC0D9FF3DC0DAFFDECFF6FFDDCFF7FF7D
:101580000800F550426E436A4050422641504322C3
:1015900043500AE10A0E425CD8A0D1EF0AF0D4EF22
:1015A0000AF0010ED5EF0AF0000E446E456A445071
:1015B0004510D8A4DEEF0AF0E0EF0AF0ADEF0AF034
:1015C0003CC0D9FF3DC0DAFFDECFF6FFDDCFF7FF2D
:1015D0000800F5502E0AD8A4F0EF0AF0F2EF0AF056
:1015E0006FEF0BF0000E5D6E000E5C6E3CC0D9FF1D
:1015F0003DC0DAFFDE2A000EDD223CC0D9FF3DC02F
:10160000DAFFDECFF6FFDDCFF7FF0800F5502A0A3C
:10161000D8A40DEF0BF00FEF0BF02CEF0BF03CC04C
:10162000D9FF3DC0DAFFDE2A000EDD223EC0D9FF21
:101630003FC0DAFFDFCF40F0020EDE26DFCF41F001
:10164000000EDD2240C0D9FF41C0DAFFDECF5CF0E2
:10165000DDCF5DF06FEF0BF03CC0D9FF3DC0DAFF8E
:10166000DECF08F0DDCF09F068EC15F008C05CF0C3
:1016700009C05DF043EF0BF03CC0D9FF3DC0DAFF7D
:10168000DE2A000EDD22D00E406EFF0E416E3CC001
:10169000D9FF3DC0DAFFDECFF6FFDDCFF7FF080050
:1016A000F550426E436A4050422641504322435017
:1016B0000AE10A0E425CD8A060EF0BF063EF0BF07A
:1016C000010E64EF0BF0000E466E476A465047105D
:1016D000D8A46DEF0BF06FEF0BF03CEF0BF03CC0BC
:1016E000D9FF3DC0DAFFDECFF6FFDDCFF7FF080000
:1016F000F550076E086AE8EC1AF007504E6E4E502F
:10170000D8B485EF0BF087EF0BF0BFEF0BF03CC0C8
:10171000D9FF3DC0DAFFDECF40F0DDCF41F0010E52
:101720004026000E412240C0F6FF41C0F7FF0800EE
:10173000F550076E086AE8EC1AF007504F6E4F50EC
:10174000D8B4A5EF0BF0A7EF0BF0BFEF0BF03CC048
:10175000D9FF3DC0DAFFDECF40F0DDCF41F0020E11
:101760004026000E412240C0F6FF41C0F7FF0800AE
:10177000F550076E086AE8EC1AF00750506E660ED6
:101780004E18D8A4C6EF0BF0C8EF0BF008EF0CF022
:101790003CC0D9FF3DC0DAFFDECFF6FFDDCFF7FF5B
:1017A0000800F5CF51F03CC0D9FF3DC0DAFFDE2A7A
:1017B000000EDD223EC0D9FF3FC0DAFFDFCF40F090
:1017C000040EDE26DFCF41F0000EDD2240C0D9FF3F
:1017D00041C0DAFFDECF4AF0DECF4BF0DECF4CF077
:1017E000DECF4DF03AC02EF03BC02FF04AC030F0B3
:1017F0004BC031F04CC032F04DC033F051C034F02A
:1018000012EC04F02EC03AF02FC03BF0EBEF0CF0DE
:101810004E0E016E000E026E200E036E080E046E58
:10182000000E066E020E056E39EC18F00150021023
:10183000D8A41DEF0CF01FEF0CF09AEF0CF03CC099
:10184000D9FF3DC0DAFFDECF40F0DDCF41F0010E21
:101850004026000E412240C0F6FF41C0F7FF0800BD
:10186000F5CF51F0BF0E406EFF0E416E3CC0D9FF68
:101870003DC0DAFFDECFF6FFDDCFF7FF0800F55001
:10188000426E436A405042264150432243500AE18F
:101890001A0E425CD8A04FEF0CF052EF0CF0010E84
:1018A00053EF0CF0000E486E496A48504910D8B406
:1018B0005CEF0CF05EEF0CF078EF0CF03EC0D9FF5F
:1018C0003FC0DAFFDFCF40F0040EDE26DFCF41F06D
:1018D000000EDD2240C0D9FF41C0DAFFDECF4AF062
:1018E000DECF4BF0DECF4CF0DECF4DF090EF0CF0C2
:1018F0003EC0D9FF3FC0DAFFDFCF40F0040EDE2646
:10190000DFCF41F0000EDD2240C0D9FF41C0DAFF39
:10191000DECF4AF0DECF4BF0DECF4CF0DECF4DF025
:10192000020E3CC0D9FF3DC0DAFFDE26000EDD22EC
:10193000F2EF0BF03CC0D9FF3DC0DAFFDECFF6FF7F
:10194000DDCFF7FF0800F550250AD8A4AAEF0CF068
:10195000ACEF0CF0C3EF0CF03CC0D9FF3DC0DAFF98
:10196000DE2A000EDD22000E026E250E016E3AC048
:1019700003F03BC004F0A4EC18F0000E3B6E010E27
:101980003A6EEBEF0CF03CC0D9FF3DC0DAFFDE2A27
:10199000000EDD22000E3B6E000E3A6EEBEF0CF0F7
:1019A0003CC0D9FF3DC0DAFFDECFF6FFDDCFF7FF49
:1019B0000800F550016E026A3AC003F03BC004F023
:1019C000A4EC18F03CC0D9FF3DC0DAFFDE2A000EBF
:1019D000DD22BDEF0CF012000450800B0D6E0450A0
:1019E00004240F6E03AEF7EF0CF0F9EF0CF0FAEFF2
:1019F0000CF00F800F50D8B400EF0DF002EF0DF097
:101A000017EF0DF00F28D8A408EF0DF00AEF0DF036
:101A100012EF0DF0000E016E000E026E000E036E4E
:101A2000000E046E038E000E046E1FEF0DF0000E0C
:101A3000016E000E026E000E036E000E046E085062
:101A4000800B0E6E0D500E18D8B429EF0DF02BEF51
:101A50000DF02CEF0DF00D8C085008240E6E07AE23
:101A600034EF0DF036EF0DF037EF0DF00E800E5025
:101A7000D8B43DEF0DF03FEF0DF054EF0DF00E2810
:101A8000D8A445EF0DF047EF0DF04FEF0DF0000E2D
:101A9000056E000E066E000E076E000E086E078EB5
:101AA000000E086E5CEF0DF0000E056E000E066E67
:101AB000000E076E000E086E0F500E5CD8B063EF7C
:101AC0000DF065EF0DF08CEF0DF00DAC6AEF0DF041
:101AD0006CEF0DF06EEF0DF0800E0D1A0FC010F0D0
:101AE0000EC00FF010C00EF001C010F005C001F0E4
:101AF00010C005F002C010F006C002F010C006F0E1
:101B000003C010F007C003F010C007F004C010F0CD
:101B100008C004F010C008F0000E106E0F500EC088
:101B200009F00A6A095E000E0A5A0ABEA1EF0DF01A
:101B30000A5009E11A0E095CD8A0A1EF0DF0A3EF3D
:101B40000DF0DAEF0DF00150021003100410D8A4CC
:101B5000ACEF0DF0AFEF0DF0010EB0EF0DF0000E99
:101B6000106E000E016E000E026E000E036E000E6F
:101B7000046E0EC00FF0E3EF0DF010A0C2EF0DF0F9
:101B8000C4EF0DF0CAEF0DF0D89010300109106EBF
:101B9000CCEF0DF0D890103201A0D1EF0DF0D3EFC3
:101BA0000DF0D4EF0DF0108E043404320332023203
:101BB00001320F2A0E500F5CD8A0E1EF0DF0E3EFD9
:101BC0000DF0BDEF0DF00DBCE8EF0DF0EAEF0DF0FC
:101BD0002AEF0EF00F50D8A4F0EF0DF0F2EF0DF059
:101BE000FCEF0DF0000E016E000E026E000E036E93
:101BF000000E046E4BEF0FF0055001260650022236
:101C0000075003220850042204A009EF0EF00BEF46
:101C10000EF0B7EF0EF010A010EF0EF012EF0EF076
:101C200018EF0EF0D89010300109106E1AEF0EF078
:101C3000D890103201A01FEF0EF021EF0EF022EF2E
:101C40000EF0108E043404320332023201320F2AB5
:101C5000B7EF0EF00550015C0650025807500358CC
:101C60000450800A096E0850800A0958D8B03BEF2A
:101C70000EF03DEF0EF068EF0EF00150055C096EBE
:101C8000025006580A6E035007580B6E045008584D
:101C90000C6EFF0E0924016EFF0E0A20026EFF0E6D
:101CA0000B20036EFF0E0C20046E800E0D1A106CBC
:101CB0001050D8A45EEF0EF060EF0EF070EF0EF053
:101CC000010E0126000E02220322042270EF0EF004
:101CD0000550015E0650025A0750035A0850045A34
:101CE0000150021003100410D8A479EF0EF07BEF1E
:101CF0000EF0B0EF0EF01050D8A481EF0EF083EF8D
:101D00000EF0B0EF0EF0000E016E000E026E000E2F
:101D1000036E000E046E4BEF0FF0D89001360236C2
:101D20000336043610AE97EF0EF099EF0EF09AEFEF
:101D30000EF0018010A09FEF0EF0A1EF0EF0A5EFC6
:101D40000EF0D8801036A7EF0EF0D89010360F5056
:101D5000D8B4ADEF0EF0AFEF0EF0B0EF0EF00F060F
:101D600003AEB5EF0EF0B7EF0EF08DEF0EF0000EF4
:101D70000E6E10AEBEEF0EF0C0EF0EF0D8EF0EF00C
:101D800010C009F07F0E0916D8B4C9EF0EF0CBEFE2
:101D90000EF0CFEF0EF0010E0E6ED8EF0EF001A098
:101DA000D4EF0EF0D6EF0EF0D8EF0EF0CBEF0EF032
:101DB0000E50D8B4DEEF0EF0E0EF0EF00BEF0FF0A8
:101DC000010E0126000E02220322042204A0EBEFE2
:101DD0000EF0EDEF0EF00BEF0FF001C009F002C0B6
:101DE0000AF003C00BF004C00CF00C340C320B32C0
:101DF0000A32093209C001F00AC002F00BC003F038
:101E00000CC004F00F28D8B408EF0FF00AEF0FF061
:101E10000BEF0FF00F2A0F28D8B411EF0FF013EFCC
:101E20000FF01BEF0FF00F50D8A419EF0FF01BEFBE
:101E30000FF02DEF0FF0000E016E000E026E000E7F
:101E4000036E000E046E0F50D8A429EF0FF02BEF95
:101E50000FF02DEF0FF0000E0D6E0FA032EF0FF010
:101E600034EF0FF037EF0FF0038E38EF0FF0039ED3
:101E7000D8900F30046E0DAE40EF0FF042EF0FF030
:101E800043EF0FF0048E01C001F002C002F003C066
:101E900003F004C004F012000450800B0D6E0450D7
:101EA0000424136E03AE57EF0FF059EF0FF05AEF03
:101EB0000FF013801350D8B460EF0FF062EF0FF003
:101EC00075EF0FF01328D8A468EF0FF06AEF0FF04A
:101ED00072EF0FF0000E016E000E026E000E036E28
:101EE000000E046E038E7DEF0FF0000E016E000EEB
:101EF000026E000E036E000E046E0850800B0D1A69
:101F000008500824126E07AE88EF0FF08AEF0FF02A
:101F10008BEF0FF012801250D8B491EF0FF093EFC7
:101F20000FF0A6EF0FF01228D8A499EF0FF09BEF57
:101F30000FF0A3EF0FF0000E056E000E066E000E00
:101F4000076E000E086E078EAEEF0FF0000E056EE6
:101F5000000E066E000E076E000E086E1250D8B40A
:101F6000B4EF0FF0B6EF0FF0BEEF0FF01350D8A4A0
:101F7000BCEF0FF0BEEF0FF0C8EF0FF0000E016ED8
:101F8000000E026E000E036E000E046E60EF11F084
:101F900007500102F3CF18F0F4CF19F018500E6E6D
:101FA0000F6A106A116A1950146E156A166A176A58
:101FB00006500202F3CF18F0F4CF19F018500E2695
:101FC000000E0F221022112219501426000E152285
:101FD0001622172205500302F3CF18F0F4CF19F0A0
:101FE00018500E26000E0F2210221122195014260E
:101FF000000E15221622172210C011F00FC010F08B
:102000000EC00FF00E6A05500202F3CF18F0F4CFA5
:1020100019F018500E2619500F22000E1022000E33
:10202000112206500102F3CF18F0F4CF19F0185026
:102030000E2619500F22000E1022000E112210C081
:1020400011F00FC010F00EC00FF00E6A0550010223
:10205000F3CF18F0F4CF19F018500E2619500F22B4
:10206000000E1022000E112207500202F3CF18F0CA
:10207000F4CF19F01850142619501522000E16220C
:10208000000E172206500302F3CF18F0F4CF19F018
:102090001850142619501522000E1622000E172271
:1020A00007500302F3CF18F0F4CF19F01850096E5F
:1020B00019500A6E0B6A0C6A0BC00CF00AC00BF0C8
:1020C00009C00AF0096A095014260A5015220B505B
:1020D00016220C5017220EC009F00FC00AF010C0D3
:1020E0000BF011C00CF0190E7BEF10F0D8900C32F1
:1020F0000B320A320932E82E76EF10F0095014261E
:102100000A5015220B5016220C50172210C011F045
:102110000FC010F00EC00FF00E6A125013C009F07D
:102120000A6A0926000E0A22820E0924186EFF0E82
:102130000A20196EB1EF10F0D89014361536163605
:10214000173611AEA6EF10F0A8EF10F0A9EF10F0BF
:102150001480D8900E360F36103611361806D8A0D7
:10216000190616AEB6EF10F0B8EF10F09CEF10F0B5
:10217000000E126E11AEBFEF10F0C1EF10F0E5EFE0
:1021800010F0FF0E0E14096EFF0E0F140A6EFF0EF4
:1021900010140B6E7F0E11140C6E09500A100B10E8
:1021A0000C10D8B4D6EF10F0D8EF10F0DCEF10F030
:1021B000010E126EE5EF10F014A0E1EF10F0E3EF66
:1021C00010F0E5EF10F0D8EF10F01250D8B4EBEFAC
:1021D00010F0EDEF10F011EF11F0010E1426000ECB
:1021E00015221622172217A0F8EF10F0FAEF10F0C0
:1021F00011EF11F014C009F015C00AF016C00BF071
:1022000017C00CF00C340C320B320A32093209C000
:1022100014F00AC015F00BC016F00CC017F0184AE5
:10222000192A19BE1CEF11F0195008E11828D8A07E
:102230001CEF11F01EEF11F028EF11F0000E146EDC
:10224000000E156E800E166E7F0E176E56EF11F093
:1022500019BE35EF11F0195006E11804D8B033EF6C
:1022600011F035EF11F041EF11F0000E146E000E79
:10227000156E000E166E000E176E000E0D6E56EFE8
:1022800011F018C013F0FF0E1416FF0E15167F0E76
:102290001616000E171613A050EF11F052EF11F0A2
:1022A00053EF11F0168ED8901330176E0D50171291
:1022B00014C001F015C002F016C003F017C004F0FE
:1022C00012000450800B116E04500424186E03AEEB
:1022D0006CEF11F06EEF11F06FEF11F018801850E5
:1022E000D8B475EF11F077EF11F08CEF11F01828DA
:1022F000D8A47DEF11F07FEF11F087EF11F0000E01
:10230000016E000E026E000E036E000E046E038E50
:10231000000E046E94EF11F0000E016E000E026EBE
:10232000000E036E000E046E0850800B111A085048
:102330000824196E07AE9FEF11F0A1EF11F0A2EF84
:1023400011F019801950D8B4A8EF11F0AAEF11F0CC
:10235000BFEF11F01928D8A4B0EF11F0B2EF11F0CF
:10236000BAEF11F0000E056E000E066E000E076E3D
:10237000000E086E078E000E086EC7EF11F0000EFB
:10238000056E000E066E000E076E000E086E0550FC
:10239000061007100810D8A4D0EF11F0D2EF11F0FA
:1023A000EAEF11F0000E016E000E026E000E036ED9
:1023B000000E046E800E03127F0E041211500412E0
:1023C00001C001F002C002F003C003F004C004F039
:1023D0002DEF13F01850D8A4F0EF11F0F2EF11F038
:1023E000FCEF11F0000E016E000E026E000E036E87
:1023F000000E046E2DEF13F0195018C009F00A6A90
:10240000095E000E0A5A7F0E0924126E000E0A2081
:10241000136E01C00DF002C00EF003C00FF004C037
:1024200010F0000E016E000E026E000E036E000E24
:10243000046E000E146E000E156E000E166E000E69
:10244000176E000E196E5DEF12F01950D8B42BEF15
:1024500012F02DEF12F044EF12F0D8900D360E3638
:102460000F361036D890013602360336043617AED2
:102470003CEF12F03EEF12F03FEF12F00180D890E7
:10248000143615361636173605500D5C06500E58A4
:1024900007500F5808501058D8A051EF12F053EFC2
:1024A00012F05CEF12F0178C05500D5E06500E5ABC
:1024B00007500F5A0850105A192A190E196463EF61
:1024C00012F065EF12F025EF12F00D500E100F1004
:1024D0001010D8B46EEF12F070EF12F088EF12F017
:1024E000148088EF12F0D890013602360336043695
:1024F00017AE7DEF12F07FEF12F080EF12F0018047
:10250000D89014361536163617361206D8A013068C
:1025100003AE8DEF12F08FEF12F073EF12F0000E9A
:10252000196E17AE96EF12F098EF12F0BCEF12F0A2
:10253000FF0E1414096EFF0E15140A6EFF0E16140A
:102540000B6E7F0E17140C6E09500A100B100C1036
:10255000D8B4ADEF12F0AFEF12F0B3EF12F0010EFE
:10256000196EBCEF12F001A0B8EF12F0BAEF12F042
:10257000BCEF12F0AFEF12F01950D8B4C2EF12F066
:10258000C4EF12F0E8EF12F0010E0126000E022255
:102590000322042204A0CFEF12F0D1EF12F0E8EFF3
:1025A00012F001C009F002C00AF003C00BF004C031
:1025B0000CF00C340C320B320A32093209C001F033
:1025C0000AC002F00BC003F00CC004F0124A132A38
:1025D00013BEF3EF12F0135008E11228D8A0F3EF66
:1025E00012F0F5EF12F000EF13F0000E136E126808
:1025F000000E016E000E026E000E036E000E046EE1
:1026000013BE0DEF13F0135006E11204D8B00BEF18
:1026100013F00DEF13F01BEF13F0000E136E000E0E
:10262000126E000E016E000E026E000E036E000EA2
:10263000046E000E116E12C018F018A022EF13F0F5
:1026400024EF13F027EF13F0038E28EF13F0039E0F
:10265000D8901830046EDEEF11F0120029BE33EF6F
:1026600013F035EF13F05CEF13F026C01AF027C01B
:102670001BF028C01CF029C01DF0000E1E6E000EBD
:102680001F6E800E206E3F0E216E38EC17F0D8B012
:102690004CEF13F04EEF13F05CEF13F083802AC081
:1026A00005F02BC006F079EC1AF00D0E2C6EFC0E26
:1026B000E82EFED72C2EFCD726C01AF027C01BF020
:1026C00028C01CF029C01DF0000E1E6E000E1F6EEB
:1026D000800E206E3F0E216E38EC17F0D8A073EFFD
:1026E00013F075EF13F09CEF13F026C01AF027C01B
:1026F0001BF028C01CF029C01DF0000E1E6E000E3D
:102700001F6E000E206E400E216E38EC17F0D8B010
:102710008CEF13F08EEF13F09CEF13F083822AC03E
:1027200005F02BC006F079EC1AF00D0E2C6EFC0EA5
:10273000E82EFED72C2EFCD726C01AF027C01BF09F
:1027400028C01CF029C01DF0000E1E6E000E1F6E6A
:10275000000E206E400E216E38EC17F0D8A0B3EFBB
:1027600013F0B5EF13F0DCEF13F026C01AF027C01A
:102770001BF028C01CF029C01DF0000E1E6E000EBC
:102780001F6E400E206E400E216E38EC17F0D8B050
:10279000CCEF13F0CEEF13F0DCEF13F083842AC0FC
:1027A00005F02BC006F079EC1AF00D0E2C6EFC0E25
:1027B000E82EFED72C2EFCD726C01AF027C01BF01F
:1027C00028C01CF029C01DF0000E1E6E000E1F6EEA
:1027D000400E206E400E216E38EC17F0D8A0F3EFBB
:1027E00013F0F5EF13F01CEF14F026C01AF027C019
:1027F0001BF028C01CF029C01DF0000E1E6E000E3C
:102800001F6E800E206E400E216E38EC17F0D8B08F
:102810000CEF14F00EEF14F01CEF14F083862AC0B6
:1028200005F02BC006F079EC1AF00D0E2C6EFC0EA4
:10283000E82EFED72C2EFCD726C01AF027C01BF09E
:1028400028C01CF029C01DF0000E1E6E000E1F6E69
:10285000800E206E400E216E38EC17F0D8A033EFBA
:1028600014F035EF14F05CEF14F0000E1A6E000E49
:102870001B6EA00E1C6E400E1D6E26C01EF027C0E3
:102880001FF028C020F029C021F038EC17F0D8A0A4
:102890004CEF14F04EEF14F05CEF14F083882AC074
:1028A00005F02BC006F079EC1AF00D0E2C6EFC0E24
:1028B000E82EFED72C2EFCD7B6EC1CF01200DEC0A2
:1028C0002AF0DFC02BF0E0C02CF0E1C02DF01AC0E0
:1028D0002AF01BC02BF01CC02CF01DC02DF0810E67
:1028E0001E6EFF0E1F6E2AC020F02BC021F02CC0E0
:1028F00022F02DC023F0180E83EF14F0D89023326D
:10290000223221322032E82E7EEF14F020501E2495
:10291000286E000E1F20296E29BE98EF14F0295052
:1029200009E1170E285CD8A098EF14F09AEF14F084
:10293000A4EF14F01AC01AF01BC01BF01CC01CF04E
:102940001DC01DF067EF15F029BEA9EF14F0ABEF25
:1029500014F01BEF15F028C01EF0FF0E1F6EFF0EC7
:10296000206E7F0E216E000E226E1E66BAEF14F0EE
:10297000C2EF14F022342232213220321F321E2EB6
:10298000B5EF14F01FC024F020C025F021C026F0C0
:1029900022C027F024502A141E6E25502B141F6EBF
:1029A00026502C14206E27502D14216E1E501F10FF
:1029B00020102110D8A4DFEF14F0E1EF14F0E3EFC2
:1029C00014F09AEF14F02AC01EF02BC01FF02CC098
:1029D00020F02DC021F0200EF3EF14F0D89021321A
:1029E00020321F321E32E82EEEEF14F01E501F1060
:1029F00020102110D8B4FFEF14F001EF15F009EF0B
:102A000015F024502A2625502B2226502C22275000
:102A10002D22241C1E6E251C1F6E261C206E271CBA
:102A2000216E1E502A161F502B1620502C16215096
:102A30002D165FEF15F02AC01EF02BC01FF02CC022
:102A400020F02DC021F0200E2BEF15F0D890213270
:102A500020321F321E32E82E26EF15F01E501F10B6
:102A600020102110D8A437EF15F039EF15F043EFFF
:102A700015F0000E2A6E000E2B6E000E2C6E000E4E
:102A80002D6E5FEF15F0D8902A341E6E2B341F6E1A
:102A90002C34206E2D34216E1E501F10201021105A
:102AA000D8B455EF15F057EF15F05FEF15F0000EA5
:102AB0002A6E000E2B6E800E2C6EBF0E2D6E2AC05D
:102AC0001AF02BC01BF02CC01CF02DC01DF0120002
:102AD000000E166E000E156E000E0F6E000E0E6EBE
:102AE00074EF15F0084A092A010E146E08C0F6FFAB
:102AF00009C0F7FF0800F550200AD8B482EF15F09E
:102B000084EF15F0A1EF15F0F70E0A6EFF0E0B6EB5
:102B100008C0F6FF09C0F7FF0800F5500C6E0D6AFB
:102B20000A500C260B500D220D5009E1050E0C5CCD
:102B3000D8A09DEF15F09FEF15F0A1EF15F0000E56
:102B4000146E14C010F0116A10501110D8A4ABEF1D
:102B500015F0ADEF15F072EF15F0B7EF15F0000EB0
:102B60000F6E010E0E6E084A092AECEF15F008C030
:102B7000F6FF09C0F7FF0800F5500A6E0B6A0B500C
:102B8000000AD8B4C6EF15F0ECEF15F00A502B0A86
:102B9000D8B4B3EF15F0060AD8B4AFEF15F0ECEFE8
:102BA00015F015C001F016C002F0000E046E0A0EFA
:102BB000036E7FEC1CF008C0F6FF09C0F7FF0800A9
:102BC000F550015E000E025A300E0124156E000E03
:102BD0000220166EB3EF15F0D00E0A6EFF0E0B6ECC
:102BE00008C0F6FF09C0F7FF0800F5500C6E0D6A2B
:102BF0000A500C260B500D220D500AE10A0E0C5CF7
:102C0000D8A005EF16F008EF16F0010E09EF16F048
:102C1000000E126E136A12501310D8A412EF16F0A1
:102C200014EF16F0D1EF15F00E500F10D8A41BEFD3
:102C300016F01DEF16F02BEF16F015C00AF016C0B7
:102C40000BF00A1E0B1E0A4A0B2A0AC008F00BC022
:102C500009F02FEF16F015C008F016C009F01200A9
:102C6000F28EF28AC70ED56E050ED66E000E956EE8
:102C7000000E966E0F0EC16E000E836EF086F09001
:102C8000F18A000E026E3C0E016E92EC1CF0000EFA
:102C9000026E0C0E016E92EC1CF020EECAF010EEEB
:102CA000A8F0130EDBCFE3FFE806FCE2000E000104
:102CB000C56F000EC46FA8C0C6F0A9C0C7F0AAC0F7
:102CC000C8F0ABC0C9F0C44BC52B000E026E800E1D
:102CD000016E92EC1CF0010E056E080E066E79EC8A
:102CE0001AF0000E026EC00E016E92EC1CF0BC0ECB
:102CF0000001986F000E996F0A0E9A6F080E9B6F75
:102D0000C6C09CF0C7C09DF0C8C09EF0C9C09FF06F
:102D100046EC1BF0C6C026F0C7C027F0C8C028F09C
:102D2000C9C029F0BC0E2A6E000E2B6E2EEC13F0DB
:102D3000C6C01AF0C7C01BF0C8C01CF0C9C01DF047
:102D4000000E1E6E000E1F6EA00E206E400E216E35
:102D500038EC17F0D8A0AFEF16F0B1EF16F056EF41
:102D600016F056EF16F000EF00F0033404340A6E4C
:102D70000A50D8A4BEEF16F0C0EF16F0CAEF16F056
:102D8000000E016E000E026E000E036E000E046E49
:102D900037EF17F001C005F002C006F003C007F0DE
:102DA00004C008F0200EDAEF16F0D890083207328F
:102DB00006320532E82ED5EF16F00550096E038E67
:102DC000FF0E0116FF0E0216FF0E0316000E04166C
:102DD000960E0A5E0ABEF1EF16F0EFEF16F007EF5F
:102DE00017F00A50800A970FD8B0F9EF16F0FBEFF2
:102DF00016F0FDEF16F0C0EF16F0D8900432033253
:102E0000023201320A3EFDEF16F01FEF17F01F0EDF
:102E10000A640DEF17F00FEF17F017EF17F0C0EF80
:102E200016F0D89001360236033604360A060A50E8
:102E3000D8A41DEF17F01FEF17F011EF17F009508E
:102E4000D8B425EF17F027EF17F02FEF17F0041E77
:102E5000031E021E016C000E02220322042201C086
:102E600001F002C002F003C003F004C004F012003D
:102E7000000E1A14226E000E1B14236E800E1C14FA
:102E8000246E7F0E1D14256E225023102410251051
:102E9000D8A44DEF17F04FEF17F057EF17F0000ED3
:102EA0001A6E000E1B6E000E1C6E000E1D6E000EC4
:102EB0001E14226E000E1F14236E800E2014246E2A
:102EC0007F0E2114256E2250231024102510D8A423
:102ED0006CEF17F06EEF17F076EF17F0000E1E6E26
:102EE000000E1F6E000E206E000E216E1DAE7BEFD9
:102EF00017F07DEF17F086EF17F01A6C1B1ED8B095
:102F00001B2A1C1ED8B01C2A800E1D5621AE8BEF2A
:102F100017F08DEF17F096EF17F01E6C1F1ED8B04C
:102F20001F2A201ED8B0202A800E2156000E1A1A01
:102F3000000E1B1A000E1C1A800E1D1A000E1E1AFF
:102F4000000E1F1A000E201A800E211A1E501A5C45
:102F50001F501B5820501C5821501D58D8B0B3EF9B
:102F600017F0B5EF17F0B8EF17F0D890B9EF17F0EA
:102F7000D8801200E2C00BF0E3C00CF0E4C00DF00A
:102F8000E5C00EF001C00BF002C00CF003C00DF064
:102F900004C00EF00BC005F00CC006F00DC007F029
:102FA0000EC008F0180EDAEF17F0D890083207328A
:102FB00006320532E82ED5EF17F00550096E0A6A81
:102FC00009500A10D8A4E7EF17F0E9EF17F009EF5E
:102FD00018F0D8900B34056E0C34066E0D34076E65
:102FE0000E34086E0550061007100810D8A4FBEF29
:102FF00017F0FDEF17F003EF18F0000E026E020E4F
:10300000016E38EF18F0000E026E030E016E38EFFD
:1030100018F009280A10D8A410EF18F012EF18F0D1
:1030200034EF18F00BC005F00CC006F00DC007F02F
:103030000EC008F0090ED890053606360736083659
:10304000E82E1BEF18F00550061007100810D8B432
:103050002CEF18F02FEF18F0010E30EF18F0000EE3
:10306000016E026A38EF18F0000E026E040E016E57
:10307000120001C008F002C009F003C00AF004C049
:103080000BF00506D8A00606052806E10628D8A4F8
:103090004CEF18F04EEF18F05BEF18F0000E026ED8
:1030A000000E016EA3EF18F0084A092A0A4A0B2AFB
:1030B0000506D8A0060608C0D9FF09C0DAFFDF5010
:1030C000D8B465EF18F067EF18F092EF18F00AC067
:1030D000F6FF0BC0F7FF0800F5500009D8B473EFF6
:1030E00018F075EF18F092EF18F005500610D8B4EC
:1030F0007CEF18F07EEF18F092EF18F008C0D9FFBF
:1031000009C0DAFFDF50076E0AC0F6FF0BC0F7FFF9
:103110000800F5500718D8B490EF18F092EF18F0A7
:1031200054EF18F008C0D9FF09C0DAFFDF50076E6E
:103130000AC0F6FF0BC0F7FF0800F550075C016EF0
:10314000026AD8A00206120003500410D8B4ABEFF4
:1031500018F0ADEF18F0B6EF18F003500410D8A433
:10316000B4EF18F0B6EF18F0BBEF18F00150BDEC5B
:103170001CF008EF19F020EE04F00350D92604509B
:10318000DA22DE50DE10D8B4C8EF18F0CAEF18F01B
:10319000E5EF18F020EE04F00350D9260450DA22AF
:1031A00010EE02F00350E1260450E222DE50E65C0D
:1031B000E650800A096EDE50800A0958D8B0E3EF65
:1031C00018F0E5EF18F008EF19F020EE02F00350C8
:1031D000D9260450DA22DECF05F0DDCF06F003C099
:1031E000D9FF04C0DAFFDECF07F0DDCF08F00550CD
:1031F0000724D96E06500820DA6E01C0DFFF20EEEA
:1032000002F00350D9260450DA22DE2A000EDD2215
:103210001200000E066E04BE12EF19F010EF19F046
:1032200018EF19F0036C041ED8B0042A010E066EC4
:1032300002BE1FEF19F01DEF19F025EF19F0016C18
:10324000021ED8B0022A010E061A000E086E000EE9
:10325000076E03500410D8B430EF19F032EF19F0B4
:103260005AEF19F0010E056E3AEF19F0D8900336B7
:103270000436052A04AE3FEF19F041EF19F036EF9E
:1032800019F0D890073608360350015C04500258F4
:10329000D8A04DEF19F04FEF19F054EF19F003508B
:1032A000015E0450025A0780D89004320332052E82
:1032B00041EF19F00650D8B460EF19F062EF19F041
:1032C00066EF19F0076C081ED8B0082A07C001F095
:1032D00008C002F012005EA070EF19F072EF19F052
:1032E0007CEF19F013C00AF014C00BF011C00CF001
:1032F00012C00DF009EC1CF016BE81EF19F083EF3F
:1033000019F089EF19F015C01AF016C01BF08DEFF7
:1033100019F0000E1B6E000E1A6E000E196E000ED4
:10332000186E9FEF19F0000E026E200E016E11C094
:1033300003F012C004F0A4EC18F0184A192A1A502D
:10334000185C1950800A176E1B50800A1758D8A0B5
:10335000ACEF19F0AEEF19F093EF19F05EB0B3EFE8
:1033600019F0B5EF19F0BFEF19F013C00AF014C04F
:103370000BF011C00CF012C00DF009EC1CF013C0E2
:1033800001F014C002F0BFEC1BF01A500124116EC2
:103390001B500220126E1200000E066E02BED5EF08
:1033A00019F0D3EF19F0DBEF19F0016C021ED8B061
:1033B000022A010E066E04BEE2EF19F0E0EF19F0EA
:1033C000E6EF19F0036C041ED8B0042A0350041071
:1033D000D8B4EDEF19F0EFEF19F013EF1AF0010E7A
:1033E000056EF7EF19F0D89003360436052A04AEBF
:1033F000FCEF19F0FEEF19F0F3EF19F00350015C48
:1034000004500258D8A007EF1AF009EF1AF00DEF98
:103410001AF00350015E0450025AD890043203326D
:10342000052EFEEF19F00650D8B419EF1AF01BEF75
:103430001AF01FEF1AF0016C021ED8B0022A01C068
:1034400001F002C002F01200000E0114096E000E1D
:1034500002140A6E800E03140B6E7F0E04140C6EA1
:1034600009500A100B100C10D8A439EF1AF03BEFDA
:103470001AF043EF1AF0000E016E000E026E000EFD
:10348000036E000E046E000E0514096E000E061485
:103490000A6E800E07140B6E7F0E08140C6E095016
:1034A0000A100B100C10D8A458EF1AF05AEF1AF0AB
:1034B00062EF1AF0000E056E000E066E000E076E2B
:1034C000000E086E055001180FE1065002180CE1BD
:1034D0000750031809E108500418D8B472EF1AF025
:1034E00074EF1AF077EF1AF0D89078EF1AF0D880CE
:1034F0001200000E0D6E000E0C6E05C001F006C02D
:1035000002F0BFEC1BF001C00AF002C00BF0A7EF05
:103510001AF00C500524076E0D500620086E07C0E7
:10352000F6FF08C0F7FFF86A070EF76403D008003B
:10353000F55005D0F6CFE1FFF7CFE2FFE750096E77
:103540000950016E026A9FEC1CF00C4A0D2A0A50C9
:103550000C5C0D50800A076E0B50800A0758D8A0EB
:10356000B4EF1AF0B6EF1AF089EF1AF0120054C057
:1035700058F055C059F0000E0001E76F000EE66FDD
:10358000D5EF1AF052C03AF053C03BF0580E3C6EE3
:10359000000E3D6E56C03EF057C03FF03FEC0AF0C3
:1035A0003A500001E6273B50E72358C0F6FF59C0C8
:1035B000F7FF0800F5500009D8A4E1EF1AF0E3EF97
:1035C0001AF0C2EF1AF0E6C052F0E7C053F0120052
:1035D000BF0E096EFF0E0A6E07C00BF008C00CF09C
:1035E00009500B260A500C220C500AE11A0E0B5CF3
:1035F000D8A0FDEF1AF000EF1BF0010E01EF1BF059
:10360000000E0D6E0E6A0D500E10D8B40AEF1BF0AE
:103610000CEF1BF013EF1BF0200E0710076E085085
:10362000086E17EF1BF007C007F008C008F0120083
:1036300003C007F004C008F001C009F002C00AF09E
:103640000750056E0850066E074A082A05C0F6FFA7
:1036500006C0F7FFF86A09C0D9FF0AC0DAFF094AB5
:103660000A2A070EF76403D00800F55005D0F6CFFC
:10367000E1FFF7CFE2FFE750DF6EDF50D8A443EF62
:103680001BF045EF1BF020EF1BF012009C0E000119
:10369000A06F000EA16F98C0A2F099C0A3F0000E19
:1036A000A56F000EA46F000EA76F000EA66FA20EEE
:1036B000526E000E536E9AC054F09BC055F0A00E8F
:1036C000566E000E576EB7EC1AF00001A451982503
:1036D000D96EA5519921DA6E000EDF6E1200010E2F
:1036E000076E200E01180210D8B479EF1BF07BEFA3
:1036F0001BF094EF1BF0F70E036EFF0E046E01C07B
:1037000005F002C006F003500526045006220650BC
:1037100009E1050E055CD8A090EF1BF092EF1BF0BD
:1037200094EF1BF0000E076E07C001F0026A120052
:10373000580EF66E390EF76E000EF86E00EECAF0F7
:1037400010EE14F00900F5CFEEFFE550E150FAE17C
:1037500001EE00F0500EEE6AE806FDE100EEDEF04C
:103760000A0EEE6AE806FDE15F6A5E6A5D6A5C6AFF
:103770005B6A5A6A000EF86E000130EF16F001C065
:1037800003F002C004F0C7EF1BF0014A022A01C097
:10379000F6FF02C0F7FFF86A070EF76403D00800CF
:1037A000F55005D0F6CFE1FFF7CFE2FFE750000973
:1037B000D8A4DDEF1BF0DFEF1BF0C5EF1BF00350CB
:1037C000015C016E04500258026E1200000E1E1AB7
:1037D000000E1F1A000E201A800E211A1AC001F0C6
:1037E0001BC002F01CC003F01DC004F01EC005F099
:1037F0001FC006F020C007F021C008F0ECEC0CF070
:1038000001C01AF002C01BF003C01CF004C01DF080
:103810001200000E106E000E0F6E1AEF1CF00EC09C
:1038200001F0026A0CC003F00DC004F0A4EC18F023
:103830000F4A102A0F500A24D96E10500B20DA6E4E
:10384000DF500E6E0E50D8A428EF1CF02AEF1CF0AB
:103850000FEF1CF01200BF0E036EFF0E046E01C0CE
:1038600005F002C006F0035005260450062206505B
:103870000AE11A0E055CD8A040EF1CF043EF1CF0E3
:10388000010E44EF1CF0000E016E026A120001509E
:10389000021003100410D8B450EF1CF052EF1CF0CB
:1038A0005AEF1CF0000E011A000E021A000E031A45
:1038B000800E041A01C001F002C002F003C003F040
:1038C00004C004F01200D00E036EFF0E046E01C09F
:1038D00005F002C006F003500526045006220650EB
:1038E0000AE10A0E055CD8A078EF1CF07BEF1CF013
:1038F000010E7CEF1CF0000E016E026A12000150F6
:103900000302F3CF05F0F4CF06F001500402F350A8
:10391000062602500302F350062605C001F006C039
:1039200002F012008494848201C083FF030E036EB0
:10393000980EE82EFED7032EFCD7849212008484C2
:10394000848201C083FF030E036E980EE82EFED71B
:10395000032EFCD784921200000000000000803F7C
:10396000000000400000404000008040000E026E59
:0C397000010E016E92EC1CF0120012001F
:020000040020DA
:08000000FFFFFFFFFFFFFFFF00
:020000040030CA
:0E000000000C1F1EFF8385FF0FC00FE00F4096
:00000001FF
